:060000000A128A110C280F
:10000800FE00030EF1000A08F2000A168A11EC2D10
:100018000A128A110F288313C230FD000730FE0030
:10002800DD30FF00A03084000A168A1105250A1267
:100038008A110A128A15B6210A128A11EA000A12CE
:100048008A15B7210A128A11EB005A3084006A30E7
:100058000A168A11D4240A128A11F801F901FA0140
:1000680083010A128A15692E83120313D6001230EF
:100078006906031D40284128FA290A168A11F42422
:100088000A128A116A3083120313A0008930A10072
:100098008030CF004F08A2000A168A11B9250A122B
:1000A8008A117A0883120313CF004F07A03E8400F9
:1000B80083130008A000840A00088403A100853087
:1000C800D1005108A2000A168A11B9250A128A110C
:1000D800633083120313A0008930A100C030CF0021
:1000E8004F08A2000A168A11B9250A128A11C630C9
:1000F80083120313CF004F08A4000A30F300003026
:10010800F4006808D000D1015008F5005108F60045
:100118000A168A1197270A128A117308303E0A169E
:100128008A1114250A128A11C73083120313CF00CB
:100138004F08A4000A30F3000030F4006808D0002B
:10014800D1015008F5005108F6000A168A117526E3
:100158000A128A117308303E0A168A1114250A12E7
:100168008A11C83083120313CF004F08A4003A3015
:100178000A168A1114250A128A11C9308312031328
:10018800CF004F08A4000A30F3000030F4007808CC
:10019800D000D1015008F5005108F6000A168A115E
:1001A80097270A128A117308303E0A168A111425F5
:1001B8000A128A11CA3083120313CF004F08A40011
:1001C8000A30F3000030F4007808D000D10150085C
:1001D800F5005108F6000A168A1175260A128A11C6
:1001E8007308303E0A168A1114250A128A115330F0
:1001F80083120313A0008930A1009530CF004F0867
:10020800A2000A168A11B9250A128A114D308312E2
:100218000313D1001930D0004F30CF00CF0B122973
:10022800D00B1229D10B12290A168A11F4240A12AA
:100238008A11EF3083120313A0008830A1008030A8
:10024800CF004F08A2000A168A11B9250A128A118E
:100258004B3083120313A0008930A100C030CF00B7
:100268004F08A2000A168A11B9250A128A113430D9
:1002780083120313A0008830A100D030CF004F08AC
:10028800A2000A168A11B9250A128A1183120313C9
:100298006808CF00D0014F08F3005008F4003C3044
:1002A800F5000030F6000A168A118E250A128A1106
:1002B8007808730783120313DE0000300318013037
:1002C8007407DF005F08DD005E08DC005E08F300ED
:1002D8005F08F4000030F41BFF30F500F600013031
:1002E8000A128A1524220A128A1176088312031325
:1002F800B1007508B0007408AF007308AE003E3056
:10030800AD00EB30AC008530AB001F30AA000A12FC
:100318008A1100240A128A11831203132D08C700B8
:100328002C08C6002B08C5002A08C4000A128A1126
:1003380061270A128A11831203134508E50044084D
:10034800E4005E08F3005F08F4000030F41BFF309F
:10035800F500F60001300A128A1524220A128A11C1
:10036800760883120313B1007508B0007408AF0053
:100378007308AE003D30AD00F530AC00C230AB00C4
:100388008F30AA000A128A1100240A128A118312D5
:1003980003132D08C7002C08C6002B08C5002A081F
:1003A800C4000A128A1161270A128A1183120313E0
:1003B8004508E3004408E2006409CF006509D0005D
:1003C800CF0A0319D00A62084F02D1006308031C40
:1003D800630A5002D2005E085107E0005F08031864
:1003E8005F0A5207E1001215071505140A128A154B
:1003F800B8210A128A111F30831203135606031DEF
:10040800062A072A0E2A121107110530CF004F08B5
:10041800EC0005106808CF00D0014F08F300500821
:10042800F4003C30F5000030F6000A168A118E25DB
:100438000A128A117808730783120313DE0000304A
:10044800031801307407DF0007307A0203182D2AD9
:100458002E2A9B2A64085C02CF006508031C650AE3
:100468005D02D0005F08803AD1005008803A5102FE
:10047800031D402A4F085E02031C432A442A542ABB
:10048800A33083120313A0008930A1008B30CF0062
:100498004F08A2000A168A11B9250A128A112F2BB1
:1004A800831203136409CF006509D000CF0A03192A
:1004B800D00A62084F02D1006308031C630A500285
:1004C800D2005C085107D3005D0803185D0A520783
:1004D800D4005F08803AD5005408803A5502031DBD
:1004E800772A53085E02031C7A2A7B2A8B2A8630D5
:1004F80083120313A0008930A1008B30CF004F086E
:10050800A2000A168A11B9250A128A112F2B8C30DB
:1005180083120313A0008930A1008B30CF004F084D
:10052800A2000A168A11B9250A128A112F2B08303F
:100538007A06031DA02AA12A0E2B5C08F3005D0889
:10054800F4000030F41BFF30F500F60001300A1209
:100558008A1524220A128A11760883120313B1001D
:100568007508B0007408AF007308AE003E30AD00E7
:10057800CC30AC00CC30AB00CD30AA000A128A11C6
:1005880000240A128A11831203132D08C7002C08AD
:10059800C6002B08C5002A08C4000A128A11612760
:1005A8000A128A118312031344085C02CF0045081B
:1005B800031C450A5D02D0005F08803AD10050084C
:1005C800803A5102031DEA2A4F085E02031CED2AF5
:1005D800EE2AFE2A863083120313A0008930A10078
:1005E8008B30CF004F08A2000A168A11B9250A12CB
:1005F8008A112F2B8C3083120313A0008930A1009D
:100608008B30CF004F08A2000A168A11B9250A12AA
:100618008A112F2B09307A06031D132B142B222B3A
:100628008630A0008930A1008B30CF004F08A2008F
:100638000A168A11B9250A128A112F2BA330A00095
:100648008930A1008B30CF004F08A2000A168A110A
:10065800B9250A128A11C63083120313CF004F0836
:10066800A4000A30F3000030F4006808D000D1017B
:100678005008F5005108F6000A168A1197270A1241
:100688008A117308303E0A168A1114250A128A1133
:10069800C73083120313CF004F08A4000A30F300B9
:1006A8000030F4006808D000D1015008F500510866
:1006B800F6000A168A1175260A128A117308303E46
:1006C8000A168A1114250A128A11C83083120313D4
:1006D800CF004F08A4003A300A168A1114250A12CE
:1006E8008A11C93083120313CF004F08A4000A30BF
:1006F800F3000030F4007808D000D1015008F5006C
:100708005108F6000A168A1197270A128A117308E7
:10071800303E0A168A1114250A128A11CA30831229
:100728000313CF004F08A4000A30F3000030F40090
:100738007808D000D1015008F5005108F6000A16D3
:100748008A1175260A128A117308303E0A168A1110
:1007580014250A128A117808031DB32BB42BFF2B1A
:10076800831203136808031DBA2BBB2BFF2B12112E
:100778000711051087140A168A11F4240A128A111F
:10078800843083120313A0008830A1008030CF008A
:100798004F08A2000A168A11B9250A128A11933045
:1007A80083120313A0008830A100C030CF004F0887
:1007B800A2000A168A11B9250A128A111A30831260
:1007C8000313D1005E30D0006D30CF00CF0BEA2B81
:1007D800D00BEA2BD10BEA2BF12B831203138710D2
:1007E800EC01EC0A1030CF004F08E9000A168A1114
:1007F800F4240A128A110800831203132D08803981
:10080800B2003208B7002D08B2003207B30033082F
:10081800BD00AC1F102C112C122C3D143D080319DF
:10082800162C172C262C3D0A031D1B2C1C2C242CA3
:100838000030AD000030AC000030AB000030AA0042
:10084800AC172E2C0030AD000030AC000030AB00EF
:100858000030AA0031088039B2003208B7063108E2
:10086800B2003207B3003308B800B01F3C2C3D2C4F
:100878003E2C381438080319422C432C522C380AC1
:10088800031D472C482C502C0030B1000030B0001C
:100898000030AF000030AE00B0175A2C0030B10065
:1008A8000030B0000030AF000030AE003808031947
:1008B8005E2C5F2C642C3D08031D632C642C6D2C6E
:1008C8000030AD000030AC000030AB000030AA00B2
:1008D800602F2A08B2003208F30030080A168A117D
:1008E80065250A128A11740883120313C30073085A
:1008F800C2004208B200B301B401B5013508BC001A
:100908003408BB003308BA003208B9004308B20003
:10091800B301B401B5013508C1003408C00033087B
:10092800BF003208BE002B08B2003208F3002F08BF
:100938000A168A1165250A128A117408831203138C
:10094800C3007308C2004208B200B301B401B50184
:100958003208B907330803110318013E0319B52CEF
:10096800BA07340803110318013E0319BC2CBB074E
:10097800350803110318013E0319C32CBC074308AB
:10098800B200B301B401B5013208BE073308031140
:100998000318013E0319D12CBF07340803110318AB
:1009A800013E0319D82CC007350803110318013E6E
:1009B8000319DF2CC1072C08B2003208F3002E08F7
:1009C8000A168A1165250A128A11740883120313FC
:1009D800C3007308C2004208B200B301B401B501F4
:1009E8003208B907330803110318013E0319FD2C17
:1009F800BA07340803110318013E0319042DBB0775
:100A0800350803110318013E03190B2DBC074308D1
:100A1800B200B301B401B5013208BE0733080311AF
:100A28000318013E0319192DBF07340803110318D1
:100A3800013E0319202DC007350803110318013E94
:100A48000319272DC1070830B2000310B90DBA0DDC
:100A5800BB0DBC0DB20B292D2B08B2003208F300D8
:100A68002E080A168A1165250A128A11740883123B
:100A78000313C3007308C2004208B2004308B3005E
:100A8800B401B5013208B907330803110318013E50
:100A980003194F2DBA07340803110318013E03192F
:100AA800562DBB07350803110318013E03195D2DA8
:100AB800BC072A08B2003208F3002F080A168A1168
:100AC80065250A128A11740883120313C300730878
:100AD800C2004208B2004308B300B401B5013208AD
:100AE800B907330803110318013E03197C2DBA070F
:100AF800340803110318013E0319832DBB07350879
:100B080003110318013E03198A2DBC070830B200EF
:100B18000310B90DBA0DBB0DBC0DB20B8C2D2A08F4
:100B2800B2003208F3002E080A168A1165250A1247
:100B38008A11740883120313C3007308C2004208A1
:100B4800B2004308B300B401B5013208B90733084D
:100B580003110318013E0319B22DBA073408031113
:100B68000318013E0319B92DBB07350803110318F3
:100B7800013E0319C02DBC072B08B2003208F30050
:100B880030080A168A1165250A128A117408831218
:100B98000313C3007308C2004208B2004308B3003D
:100BA800B401B5013208BE07330803110318013E2A
:100BB8000319DF2DBF07340803110318013E031979
:100BC800E62DC007350803110318013E0319ED2D62
:100BD800C1072C08B2003208F3002F080A168A1140
:100BE80065250A128A11740883120313C300730857
:100BF800C2004208B2004308B300B401B50132088C
:100C0800BE07330803110318013E03190C2EBF0752
:100C1800340803110318013E0319132EC0073508C1
:100C280003110318013E03191A2EC1072C08B2003C
:100C38003208F30030080A168A1165250A128A114B
:100C4800740883120313C3007308C2004208B20079
:100C58004308B300B401B50108300310B20DB30D59
:100C6800B40DB50DFF3E031D312E3208BE07330803
:100C780003110318013E0319422EBF07340803115C
:100C88000318013E0319492EC0073508031103183C
:100C9800013E0319502EC1073908B2003A08B300C3
:100CA8003B08B4003C08B50018300310B50CB40C70
:100CB800B30CB20CFF3E031D592E3208BE07330891
:100CC80003110318013E03196A2EBF0734080311E4
:100CD8000318013E0319712EC007350803110318C4
:100CE800013E0319782EC1070830B2000310B90D70
:100CF800BA0DBB0DBC0DB20B7A2E3D083807B200F9
:100D0800B301B30D3208823EC20033080318013E16
:100D1800FF3EC300AC2E0130B2000310BE0DBF0D64
:100D2800C00DC10DB20B912EBC1F9B2E9C2E9D2E6B
:100D38003E140130B2000310B90DBA0DBB0DBC0D45
:100D4800B20B9F2EFF30C2070318C30AFF30C30738
:100D5800C01FAF2EB02E8F2EB801BC1FB42EB52EDB
:100D6800D12EFF303905B200FF303A05B300FF300D
:100D78003B05B4007F303C05B50035083404330426
:100D880032040319C82EC92ECC2EB801B80AD12EA8
:100D98003E1CCF2ED02ED12EC92E38080319D52EA1
:100DA800D62E072F0130BE07003003180130BF07C9
:100DB800003003180130C007003003180130C107A4
:100DC800411CE72EE82E072F3E08B2003F08B3006B
:100DD8004008B4004108B5000130B600350DB50C27
:100DE800B40CB30CB20CB60BF22E3508C1003408A3
:100DF800C0003308BF003208BE000130C207031824
:100E0800C30A0030C3074308803AFF0080307F02DE
:100E1800031D102FFF304202031C132F142F1F2F06
:100E28007F3083120313C1008030C0000030BF0040
:100E38000030BE00542F831203134308803AFF008A
:100E480080307F02031D2A2F0130420203182D2F04
:100E58002E2F3A2F003083120313C1000030C00038
:100E68000030BF000030BE00B701542F83120313B7
:100E78004208B2003208BD00FF30BE05FF30BF0592
:100E88007F30C0050030C1053D1C4B2F4C2F4D2F26
:100E9800C0173D08B2000310320CB3003308C1007C
:100EA8003708B2003208C1044108AD004008AC0060
:100EB8003F08AB003E08AA00080003108312031382
:100EC800460D470DC8004808CE004E08031D6D2F7B
:100ED8006E2F772F0030C7000030C6000030C500E5
:100EE8000030C400DC2F4408C8004508C900460883
:100EF800CA004708CB001F300310CB0CCA0CC90C22
:100F0800C80CFF3E031D802F4808CC004C08CD00BC
:100F1800C617FF30C405FF30C505FF30C6050030D1
:100F2800C7059630CE02CE1F9A2F9B2FB52F4E089D
:100F3800803A973E0318A12FA22FA32F6E2F0130BE
:100F48000310C70CC60CC50CC40CFF3E031DA42F10
:100F58000130C8004808CE07031DB32FB42FA32FB4
:100F6800CC2F20304E02031CBA2FBB2FC72F6E2F59
:100F78000130C8000310C40DC50DC60DC70DC80B40
:100F8800BE2F0130CE024E08031DCB2FCC2FBC2F15
:100F98004D080319D02FD12FDC2FC409C509C60964
:100FA800C709C40A0319C50A0319C60A0319C70AD7
:100FB800080092348934983489341A3489347F3457
:100FC800893410348934053489345B3489342434C1
:100FD800893438348934423489342E348934FA34A3
:100FE8008834A8348934AD348934783489349E34CB
:060FF8008934B134893494
:101000002034573461347334683469346E3467344F
:1010100020344D3461346334683469346E3465345B
:1010200020340034203420342034203450346F34C1
:1010300077346534723420344F344E3420342034C5
:101040002034203400342034203450346F3477344A
:101050006534723469346E34673420344F344E341E
:10106000203420342034003435342D345334543477
:101070004134523454342034203436342D345034F6
:101080004134553453344534003457346134733467
:10109000683469346E3467342034503472346F34B9
:1010A0006734723461346D34733400342034503416
:1010B000723465347334733420344B34653479348A
:1010C0003534203454346F34203400344D3461349A
:1010D00069346E3420345334633472346534653487
:1010E0006E342E342E342E34003420345034723486
:1010F000653473347334203453347734693474343E
:10110000633468343A340034503472346F346734A2
:10111000203443346F346D3470346C34653474343B
:10112000653464340034523465346D346F3476344D
:101130006534203443346C346F347434683465342B
:1011400073340034523465347434753472346E340C
:1011500069346E346734203454346F3420340034AE
:1011600020345334573435343A34203453345434DF
:10117000413452345434203400345734613474349C
:101180006534723420344C346534763465346C34D0
:101190003A34003450346C3465346134733465341B
:1011A000203443344C346F34733465340034203489
:1011B0005334573436343A342034533454344F345F
:1011C00050342034003444344F344F3452342034BB
:1011D0003A3420344F34503445344E34003446349D
:1011E00075346E346334743469346F346E3420343F
:1011F0002D34003441347134753461342034533427
:1012000074346F34723465340034453463346F346D
:1012100043346F34743474346F346E347334003444
:1012200053347434613469346E34773461347334D4
:1012300068340034443465346C3469346334613464
:101240007434653473340034423465346434733434
:10125000683465346534743473340034573461341D
:101260007334683420346F346E346C347934003421
:10127000523469346E34733465342B3444347234EC
:101280007934003444347234793420346F346E3419
:101290006C3479340034543469346D34653420341A
:1012A0003D342034003428344D344D343A345334F2
:1012B00053342934003457346F346C346C3465340F
:1012C0006E3473340034543469346D3465343A34D4
:1012D00020340034503472346F3467343A3420345C
:1012E0000034543469346D3465343D342034003472
:1012F0004D3465346434693475346D340034573496
:101300006834693474346534733400345234693465
:101310006E3473346534003420345334703469349B
:101320006E3400344434613469346C3479340034BC
:10133000483465346134763479340034483469345F
:10134000673468340034573461347334683400349B
:101350004134753474346F3400344C346F34773422
:0A13600000344D3461347834003459
:10136C0001340034831203130618BD29BE29232A25
:10137C0087140711051012110A168A11F4240A1287
:10138C008A15E33083120313A0008830A10080304B
:10139C00A3002308A2000A168A11B9250A128A157D
:1013AC00CA3083120313A0008830A100C030A30000
:1013BC002308A2000A168A11B9250A128A1583126B
:1013CC000313061CEA29EB29E5290A168A11F424D1
:1013DC000A128A15EF3083120313A0008830A10083
:1013EC008030A3002308A2000A168A11B9250A121C
:1013FC008A15713083120313A0008930A100C0300C
:10140C00A3002308A2000A168A11B9250A128A150C
:10141C00343083120313A0008830A100D030A30015
:10142C002308A2000A168A11B9250A128A158312FA
:10143C0003130715051412158710080083120313E4
:10144C00A400240803192B2A2C2A402AF61F2F2A21
:10145C00302A402A7309A6007409A7007509A80050
:10146C007609A900A60A0319A70A0319A80A0319E1
:10147C00A90A482A7608A9007508A8007408A700CC
:10148C007308A6007608750474047304031D4F2AB0
:10149C00502A592A0030F6000030F5000030F400D4
:1014AC000030F300DF2A9630A0002008A5006B2A3C
:1014BC000130A0002008A50701300310A90CA80CCE
:1014CC00A70CA60CFF3E031D632AFE302905031D45
:1014DC00702A712A5E2A8D2A0130A0002008A507E7
:1014EC000130A607003003180130A707003003189D
:1014FC000130A807003003180130A9070130031090
:10150C00A90CA80CA70CA60CFF3E031D852AFF30C6
:10151C002905031D922A932A722A9F2A0130A502BB
:10152C000130A0000310A60DA70DA80DA90DA00B4E
:10153C00982AA81BA22AA32AA92A0230250203183A
:10154C00A82AA92A942A2518AC2AAD2AB52AFF3034
:10155C00A605FF30A7057F30A805FF30A9050310AD
:10156C00A50C2508A000A101A201A30118300310AD
:10157C00A00DA10DA20DA30DFF3E031DBD2A200839
:10158C00A6042108A7042208A8042308A9042408F7
:10159C000319D12AD22AD72AF61FD52AD62AD72A16
:1015AC00A9172908F6002808F5002708F4002608D2
:1015BC00F300080083120313A90010306906031D01
:1015CC00E82AE92AEF2A0A168A11F4240A128A1543
:1015DC00FA013730831203132906031DF62AF72A62
:1015EC00072B0130A6002608FA070C307A06031DDB
:1015FC00002B012B022BFA010A168A11F4240A1271
:10160C008A15453083120313A0008830A100803066
:10161C00A6002608A2000A168A11B9250A128A15F4
:10162C00C03083120313A6002608A4002A300A1621
:10163C008A1114250A128A150A307A020318272BEC
:10164C00282B6E2B7A0883120313A6002607A03EC4
:10165C00840083130008A000840A00088403A100FE
:10166C00C230A8002808A2000A168A11B9250A124D
:10167C008A157A0883120313A6002607A23E84005B
:10168C0083130008A000840A00088403A100923090
:10169C00A8002808A2000A168A11B9250A128A1570
:1016AC007A0883120313A6002607A43E8400831332
:1016BC000008A000840A00088403A100D230A8000E
:1016CC002808A2000A168A11B9250A128A15FF2BBE
:1016DC000A307A06031D732B742BB82B7A088312ED
:1016EC000313A6002607A03E840083130008A00065
:1016FC00840A00088403A100C230A8002808A200B4
:10170C000A168A11B9250A128A157A08831203134C
:10171C00A6002607A23E840083130008A000840ABA
:10172C0000088403A1009230A8002808A2000A1621
:10173C008A11B9250A128A158316031320088312FD
:10174C000313A00083160313210883120313A100B3
:10175C00D230A6002608A2000A168A11B9250A1250
:10176C008A15FF2B0B307A06031DBD2BBE2BFF2BCE
:10177C007A0883120313A6002607A03E8400831365
:10178C000008A000840A00088403A100C230A8004D
:10179C002808A2000A168A11B9250A128A1583167E
:1017AC000313200883120313A000831603132108CC
:1017BC0083120313A1009230A6002608A2000A1679
:1017CC008A11B9250A128A1583160313220883126B
:1017DC000313A00083160313230883120313A10021
:1017EC00D230A6002608A2000A168A11B9250A12C0
:1017FC008A15080083120313A90011306906031D12
:10180C00082C092C0F2CF9010A168A11F4240A123F
:10181C008A153730831203132906031D162C172C37
:10182C00272C0130A6002608F90705307906031D80
:10183C00202C212C222CF9010A168A11F4240A12CC
:10184C008A15BD3083120313A0008830A1008030AC
:10185C00A6002608A2000A168A11B9250A128A15B2
:10186C00C03083120313A6002608A4002A300A16DF
:10187C008A1114250A128A15033079020318472C91
:10188C00482C8E2C790883120313A6002607B83E29
:10189C00840083130008A000840A00088403A100BC
:1018AC00C230A8002808A2000A168A11B9250A120B
:1018BC008A15790883120313A6002607BA3E840002
:1018CC0083130008A000840A00088403A10092304E
:1018DC00A8002808A2000A168A11B9250A128A152E
:1018EC00790883120313A6002607BC3E84008313D9
:1018FC000008A000840A00088403A100D230A800CC
:10190C002808A2000A168A11B9250A128A151F2D59
:10191C0003307906031D932C942CD82C7908831250
:10192C000313A6002607B83E840083130008A0000A
:10193C00840A00088403A100C230A8002808A20071
:10194C000A168A11B9250A128A157908831203130B
:10195C00A6002607BA3E840083130008A000840A60
:10196C0000088403A1009230A8002808A2000A16DF
:10197C008A11B9250A128A158316031338088312A3
:10198C000313A00083160313390883120313A10059
:10199C00D230A6002608A2000A168A11B9250A120E
:1019AC008A151F2D04307906031DDD2CDE2C1F2D0E
:1019BC00790883120313A6002607B83E840083130C
:1019CC000008A000840A00088403A100C230A8000B
:1019DC002808A2000A168A11B9250A128A1583163C
:1019EC000313380883120313A0008316031339085A
:1019FC0083120313A1009230A6002608A2000A1637
:101A0C008A11B9250A128A15831603133A08831210
:101A1C000313A000831603133B0883120313A100C6
:101A2C00D230A6002608A2000A168A11B9250A127D
:101A3C008A1508003A2E2130F3007308F80083123F
:101A4C000313E801682E2930F3007308F800252DE4
:101A5C002D30F3007308F800252D7908F300F401FC
:101A6C007408003A03193B2D682E7308003A0319C9
:101A7C00292D013A0319212D033A0319292D013A75
:101A8C0003192E2D073A03192E2D682E2B30F30037
:101A9C007308F80083120313E8013230F300730863
:101AAC00F80083120313E801682E3930F300730831
:101ABC00F800252D7908F300F4017408003A031995
:101ACC00682D682E7308003A0319532D013A031937
:101ADC004C2D033A0319532D013A03195B2D073A88
:101AEC0003195B2D682E1A30F3007308F800252DAE
:101AFC001F30F3007308F800252D7908F300F4016A
:101B0C007408003A03198B2D682E7308003A0319D8
:101B1C00792D013A0319792D033A0319792D013ADC
:101B2C0003197E2D073A03197E2D682E1030F30011
:101B3C007308F80083120313E801E80A682E2430B6
:101B4C00F3007308F80083120313E801E80A1C3051
:101B5C00F3007308F800252D1D30F3007308F8000E
:101B6C00682E2E30F3007308F80083120313E8017B
:101B7C003530F3007308F80083120313E801682E64
:101B8C003C30F3007308F800252D7908F300F401BC
:101B9C007408003A0319D32D682E7308003A031900
:101BAC00BE2D013A0319B72D033A0319BE2D013A84
:101BBC000319C62D073A0319C62D682E1230F300EF
:101BCC007308F80083120313E801EC2D1430F300B2
:101BDC007308F80083120313E801682E7908F300E8
:101BEC00F4017408003A0319FC2D682E7308003AAE
:101BFC000319EC2D013A0319E42D033A0319EC2DCA
:101C0C00013A0319EC2D073A0319EC2D682E063016
:101C1C00F3007308F800682E1030F3007308F80016
:101C2C0083120313E8011530F3007308F8008312D4
:101C3C000313E801682E7908F300F4017408003AE4
:101C4C000319292E682E7308003A0319192E013A2C
:101C5C000319122E033A0319192E013A0319792D7F
:101C6C00073A0319792D682E7A08F300F4017408E9
:101C7C00003A0319422E682E7308003A0319332DCB
:101C8C00013A0319602D033A0319832D013A031904
:101C9C009C2D073A0319A52D013A0319AD2D033AD2
:101CAC000319B22D013A0319CB2D0F3A0319F42D58
:101CBC00013A03190D2E033A0319212E013A031987
:101CCC00212E682E080083120313EC01EC0A0A166D
:101CDC008A1129250A128A15563083120313A00083
:101CEC008830A1008030D7005708A2000A168A114C
:101CFC00B9250A128A15123083120313A0008830FA
:101D0C00A100C030D7005708A2000A168A11B925C5
:101D1C000A128A15003083120313A0008830A10028
:101D2C009030D7005708A2000A168A11B9250A125A
:101D3C008A15B92E83160313C201C3010130831611
:101D4C000313C2070318C30A0030C3074308803AC1
:101D5C00FF008B307F02031DB52EB8304202031CEE
:101D6C00B82EB92EA42E01300A168A1130270A1269
:101D7C008A152F3A031DC32EC42EA02E0A168A11C3
:101D8C00F4240A128A150A168A11D0260A128A1508
:101D9C00103083120313D7005708E90001300A16DC
:101DAC008A1130270A128A1583120313D700570899
:101DBC0083160313C600C401C50101308316031337
:101DCC00C4070318C50A0030C5074508803AFF0050
:101DDC008B307F02031DF42EB8304402031CF72E07
:101DEC00F82EE32EB730831603134606031DFF2E81
:101DFC00002F102F831203136C03031D062F072FC4
:101E0C00102F0230D7005708EC001130D7005708BC
:101E1C00E900E22FB730831603134606031D172F74
:101E2C00182F5E2F0230831203136C06031D1F2F15
:101E3C00202F5E2F0A128A1520250A128A150A16DF
:101E4C008A11F4240A128A15753083120313A00028
:101E5C008830A1008030D7005708A2000A168A11DA
:101E6C00B9250A128A15B03083120313A0008830EA
:101E7C00A100C030D7005708A2000A168A11B92554
:101E8C000A128A15D73083120313A0008830A100E0
:101E9C009030D7005708A2000A168A11B9250A12E9
:101EAC008A15033083120313D7005708EC00E22F76
:101EBC002F30831603134606031D652F662F762FCE
:101ECC000530831203136C06031D6D2F6E2F762FB6
:101EDC001215071505140430D7005708EC00E22F33
:101EEC00E22F8316031346080A128A15E0220A12FF
:101EFC008A15F92F8316031346080A128A15002433
:101F0C000A128A15F92F2F30831603134606031D68
:101F1C00902F912F9C2F043083120313D700570856
:101F2C00EC001230D7005708E900D42E1F304606BB
:101F3C00031DA12FA22FF92F0A168A11F4240A12BD
:101F4C008A15A23083120313A0008830A1008230BE
:101F5C00D7005708A2000A168A11B9250A128A1549
:101F6C00663083120313A0008830A100C230D70062
:101F7C005708A2000A168A11B9250A128A151A30B6
:101F8C0083120313D9005E30D8006D30D700D70B05
:101F9C00CD2FD80BCD2FD90BCD2FD42F83120313CC
:101FAC00EC01EC0ACE2E8316031346080A128A1192
:101FBC0038200A128A15F92F83126C08D700D80121
:101FCC005808003A0319EB2FF92F5708013A031957
:101FDC00772F033A0319802F013A0319892F073AF7
:101FEC000319D92FF92F83120313E901D42E0A12E6
:101FFC008A110C28FF1B0A2883137F1883170008EB
:10200C00840A0319FF0A08007F087F398A00040834
:08201C00840A0319FF0A820087
:10299C008316031306083F38860008006400800184
:1029AC00840A0406031900340406D52C8316031379
:1029BC008801091189100A168A1123260A168A1110
:1029CC0008008312031312149214FA3083160313A3
:1029DC0092008C148312031312110800F3010130BE
:1029EC000A168A1145250A168A11A630F700F70B2C
:1029FC00FD2C000008007E088A007F0882000A1661
:102A0C008A1101250A168A118000840A04087D06A1
:102A1C0003190034FF0A0319FE0A052D8312031350
:102A2C00A500F30124080A168A1145250A168A11F5
:102A3C00F301F30A8312031325080A168A1145259C
:102A4C000A168A1108000A168A11DC240A168A1141
:102A5C000A168A11CE240A168A110A168A11E7243C
:102A6C000A168A110B1783160313871007118B177D
:102A7C0006309F0085018312031385010800F600C0
:102A8C007318492D4D2D831203130915502D8312E4
:102A9C0003130911760888008914A630F400F40B8E
:102AAC00552D00008312031389101B30F5009E3046
:102ABC00F400F40B5F2DF50B5F2D00000800831262
:102ACC000313A400A001A1017308F500F601750819
:102ADC00A2007608A300241C742D752D7B2D2208D2
:102AEC00A0070318A10A2308A10701300310A20DA7
:102AFC00A30DFF3E031D7C2D0310A40C2408031D05
:102B0C00882D892D712D2108F4002008F300080070
:102B1C0083120313A001A101731C952D962D9E2DDC
:102B2C00750883120313A0070318A10A7608A107DE
:102B3C0001300310F50DF60DFF3E031D9F2D0130E6
:102B4C000310F40CF30CFF3E031DA62D7308740444
:102B5C00031DB12DB22D922D831203132108F40005
:102B6C002008F3000800F3018312031322080A164D
:102B7C008A1145250A168A11DB2DF301F30A210867
:102B8C00FF00200884000A168A1100200A168A11F8
:102B9C000A168A1145250A168A110130831203136D
:102BAC00A0070318A10A0030A10783120313210800
:102BBC00FF00200884000A168A1100200A168A11C8
:102BCC00003A031DEA2DEB2DC32D080083120313CD
:102BDC008C1CF12DF22D1C2E0130DA070318DB0AA8
:102BEC000030DB07E2305A06043003195B06031D84
:102BFC00002E012E1B2EDA01DB0178080319072E9B
:102C0C00082E0B2E0130F8021B2E7808031D0F2EF8
:102C1C00102E1B2E68080319142E152E1B2E013096
:102C2C00E8023B30F0007008F8008C1072088A0043
:102C3C00710E8300FE0E7E0E0900C3308312031347
:102C4C00A100CC30A000A00B292EA10B292E000036
:102C5C00F30133300A168A1145250A168A111B30E6
:102C6C0083120313A1009D30A000A00B3B2EA10BDF
:102C7C003B2E402EF30133300A168A1145250A16D5
:102C8C008A11A53083120313A000A00B4B2E4E2EDD
:102C9C00F30133300A168A1145250A168A11562E6D
:102CAC00572E0000F30101300A168A1145250A1629
:102CBC008A11A53083120313A000A00B632E662E7D
:102CCC00F3010C300A168A1145250A168A11A53013
:102CDC0083120313A000A00B712E742E0800831214
:102CEC000313A101F61F7B2E7C2E832EF509F6090A
:102CFC00F50A0319F60AA101A10AF41F862E872EE4
:102D0C008C2EF309F409F30A0319F40A73087404FA
:102D1C000319912E922EC12EA001A00AA02E0130D3
:102D2C000310F30DF40DFF3E031D962E0130F7003A
:102D3C007708A007F41FA32EA42E952E74087602F4
:102D4C00031DAA2E73087502031CAD2EAE2EB42ED5
:102D5C007308F5027408031CF603F6020130031025
:102D6C00F40CF30CFF3E031DB52E0130A002031D25
:102D7C00C02EC12EA42E21080319C52EC62ECB2E73
:102D8C00F509F609F50A0319F60A7608F400750830
:102D9C00F300080083120313A9012908803EA60042
:102DAC002608A4002A300A168A1114250A168A113C
:102DBC00013083120313A6002608A907103029023C
:102DCC00031CE92EEA2ED32E2330A0008830A1005C
:102DDC00C030A6002608A2000A168A11B9250A16C8
:102DEC008A11003083120313A0008830A1009030A8
:102DFC00A6002608A2000A168A11B9250A168A11FD
:102E0C0083120313AA012A08D03EA6002608A400A8
:102E1C002A300A168A1114250A168A1101308312D7
:102E2C000313A6002608AA0710302A02031C1F2F22
:102E3C00202F092F1A3083120313A8005E30A7002D
:102E4C006D30A600A60B282FA70B282FA80B282F18
:102E5C002F2F0800F4007408031D352F362F3B2F3D
:102E6C008312031306083F39962F3F308312031346
:102E7C000605F3003F3073060319452F462F552FD7
:102E8C006A086B0403194B2F4C2F552FEA01EB01E9
:102E9C00E60106083F39F3007308E700952F6A082E
:102EAC006B04031D5A2F5B2F6D2F06083F396706E5
:102EBC00031D612F622F6D2F143066020318672FCC
:102ECC00682F6D2F0130F3007308E607952F14302F
:102EDC006606031D722F732F7A2F0130F3007308CF
:102EEC00E60767088038962F3F300605F3003F3021
:102EFC007306031D822F832F952F6A086B04031D05
:102F0C00882F892F952F0130EA000030EB00143008
:102F1C0066020318922F932F952F6708962F3F3038
:102F2C00080083120313A101F41F9D2F9E2FA52FC0
:102F3C00F309F409F30A0319F40AA101A10AF61F13
:102F4C00A82FA92FB22FF509F609F50A0319F60ACD
:102F5C000130F7007708A106A201A30173087404DD
:102F6C000319B92FBA2FF12FA001A00AC82F0130D5
:102F7C000310F30DF40DFF3E031DBE2F0130F700BF
:102F8C007708A007F41FCB2FCC2FBD2F01300310D7
:102F9C00A20DA30DFF3E031DCD2F74087602031D59
:102FAC00D92F73087502031CDC2FDD2FE42F730857
:102FBC00F5027408031CF603F60222140130031008
:102FCC00F40CF30CFF3E031DE52F0130A002031D92
:102FDC00F02FF12FCC2F21080319F52FF62FFB2FF3
:102FEC00A209A309A20A0319A30A2308F4002208C0
:042FFC00F3000800D6
:08400000FF3FFF3FFF3FFF3FC0
:02400E00FB3F76
:00000001FF
